{
  "contracts/Transactions.sol": {
    "Transactions": {
      "abi": [
        {
          "anonymous": false,
          "inputs": [
            {
              "components": [
                {
                  "internalType": "uint256",
                  "name": "timestamp",
                  "type": "uint256"
                },
                {
                  "internalType": "address",
                  "name": "from",
                  "type": "address"
                },
                {
                  "internalType": "address",
                  "name": "to",
                  "type": "address"
                },
                {
                  "internalType": "uint256",
                  "name": "amount",
                  "type": "uint256"
                }
              ],
              "indexed": false,
              "internalType": "struct Transactions.Transaction",
              "name": "",
              "type": "tuple"
            }
          ],
          "name": "TestStruct",
          "type": "event"
        },
        {
          "anonymous": false,
          "inputs": [
            {
              "indexed": false,
              "internalType": "address",
              "name": "sender",
              "type": "address"
            },
            {
              "indexed": false,
              "internalType": "address",
              "name": "receiver",
              "type": "address"
            },
            {
              "indexed": false,
              "internalType": "uint256",
              "name": "amount",
              "type": "uint256"
            },
            {
              "indexed": false,
              "internalType": "string",
              "name": "message",
              "type": "string"
            },
            {
              "indexed": false,
              "internalType": "uint256",
              "name": "timestamp",
              "type": "uint256"
            },
            {
              "indexed": false,
              "internalType": "string",
              "name": "keyword",
              "type": "string"
            }
          ],
          "name": "Transfer",
          "type": "event"
        },
        {
          "inputs": [
            {
              "internalType": "address payable",
              "name": "receiver",
              "type": "address"
            },
            {
              "internalType": "uint256",
              "name": "amount",
              "type": "uint256"
            },
            {
              "internalType": "string",
              "name": "message",
              "type": "string"
            },
            {
              "internalType": "string",
              "name": "keyword",
              "type": "string"
            }
          ],
          "name": "publishTransaction",
          "outputs": [],
          "stateMutability": "nonpayable",
          "type": "function"
        },
        {
          "inputs": [
            {
              "components": [
                {
                  "internalType": "uint256",
                  "name": "timestamp",
                  "type": "uint256"
                },
                {
                  "internalType": "address",
                  "name": "from",
                  "type": "address"
                },
                {
                  "internalType": "address",
                  "name": "to",
                  "type": "address"
                },
                {
                  "internalType": "uint256",
                  "name": "amount",
                  "type": "uint256"
                }
              ],
              "internalType": "struct Transactions.Transaction",
              "name": "testParam",
              "type": "tuple"
            }
          ],
          "name": "publishTransaction2",
          "outputs": [],
          "stateMutability": "nonpayable",
          "type": "function"
        }
      ],
      "evm": {
        "bytecode": {
          "linkReferences": {},
          "object": "608060405234801561001057600080fd5b5061062c806100206000396000f3fe608060405234801561001057600080fd5b50600436106100365760003560e01c806338cedf731461003b5780637d0ee35714610057575b600080fd5b610055600480360381019061005091906102a2565b610073565b005b610071600480360381019061006c919061020f565b6100ad565b005b7fe1416ea0785bd3df56bd8db55a6b131d45bf9d11bac20d9d9a7c13de93ffb31b816040516100a29190610413565b60405180910390a150565b7f416cfa4330a4565f45c2fd2dd4826a83a37443aba2ce6f79477c7355afac35fa3385858542866040516100e6969594939291906103a4565b60405180910390a150505050565b60006101076101028461045f565b61042e565b90508281526020810184848401111561011f57600080fd5b61012a84828561052f565b509392505050565b600081359050610141816105b1565b92915050565b600081359050610156816105c8565b92915050565b600082601f83011261016d57600080fd5b813561017d8482602086016100f4565b91505092915050565b60006080828403121561019857600080fd5b6101a2608061042e565b905060006101b2848285016101fa565b60008301525060206101c684828501610132565b60208301525060406101da84828501610132565b60408301525060606101ee848285016101fa565b60608301525092915050565b600081359050610209816105df565b92915050565b6000806000806080858703121561022557600080fd5b600061023387828801610147565b9450506020610244878288016101fa565b935050604085013567ffffffffffffffff81111561026157600080fd5b61026d8782880161015c565b925050606085013567ffffffffffffffff81111561028a57600080fd5b6102968782880161015c565b91505092959194509250565b6000608082840312156102b457600080fd5b60006102c284828501610186565b91505092915050565b6102d4816104f9565b82525050565b6102e3816104ab565b82525050565b6102f2816104ab565b82525050565b60006103038261048f565b61030d818561049a565b935061031d81856020860161053e565b610326816105a0565b840191505092915050565b6080820160008201516103476000850182610386565b50602082015161035a60208501826102da565b50604082015161036d60408501826102da565b5060608201516103806060850182610386565b50505050565b61038f816104ef565b82525050565b61039e816104ef565b82525050565b600060c0820190506103b960008301896102e9565b6103c660208301886102cb565b6103d36040830187610395565b81810360608301526103e581866102f8565b90506103f46080830185610395565b81810360a083015261040681846102f8565b9050979650505050505050565b60006080820190506104286000830184610331565b92915050565b6000604051905081810181811067ffffffffffffffff8211171561045557610454610571565b5b8060405250919050565b600067ffffffffffffffff82111561047a57610479610571565b5b601f19601f8301169050602081019050919050565b600081519050919050565b600082825260208201905092915050565b60006104b6826104cf565b9050919050565b60006104c8826104cf565b9050919050565b600073ffffffffffffffffffffffffffffffffffffffff82169050919050565b6000819050919050565b60006105048261050b565b9050919050565b60006105168261051d565b9050919050565b6000610528826104cf565b9050919050565b82818337600083830152505050565b60005b8381101561055c578082015181840152602081019050610541565b8381111561056b576000848401525b50505050565b7f4e487b7100000000000000000000000000000000000000000000000000000000600052604160045260246000fd5b6000601f19601f8301169050919050565b6105ba816104ab565b81146105c557600080fd5b50565b6105d1816104bd565b81146105dc57600080fd5b50565b6105e8816104ef565b81146105f357600080fd5b5056fea2646970667358221220a65a7b9ca293eb0aa0ca64db9a9d0e4aeae2199b79c3ccd7ed1159ad11cb00f064736f6c63430008000033",
          "opcodes": "PUSH1 0x80 PUSH1 0x40 MSTORE CALLVALUE DUP1 ISZERO PUSH2 0x10 JUMPI PUSH1 0x0 DUP1 REVERT JUMPDEST POP PUSH2 0x62C DUP1 PUSH2 0x20 PUSH1 0x0 CODECOPY PUSH1 0x0 RETURN INVALID PUSH1 0x80 PUSH1 0x40 MSTORE CALLVALUE DUP1 ISZERO PUSH2 0x10 JUMPI PUSH1 0x0 DUP1 REVERT JUMPDEST POP PUSH1 0x4 CALLDATASIZE LT PUSH2 0x36 JUMPI PUSH1 0x0 CALLDATALOAD PUSH1 0xE0 SHR DUP1 PUSH4 0x38CEDF73 EQ PUSH2 0x3B JUMPI DUP1 PUSH4 0x7D0EE357 EQ PUSH2 0x57 JUMPI JUMPDEST PUSH1 0x0 DUP1 REVERT JUMPDEST PUSH2 0x55 PUSH1 0x4 DUP1 CALLDATASIZE SUB DUP2 ADD SWAP1 PUSH2 0x50 SWAP2 SWAP1 PUSH2 0x2A2 JUMP JUMPDEST PUSH2 0x73 JUMP JUMPDEST STOP JUMPDEST PUSH2 0x71 PUSH1 0x4 DUP1 CALLDATASIZE SUB DUP2 ADD SWAP1 PUSH2 0x6C SWAP2 SWAP1 PUSH2 0x20F JUMP JUMPDEST PUSH2 0xAD JUMP JUMPDEST STOP JUMPDEST PUSH32 0xE1416EA0785BD3DF56BD8DB55A6B131D45BF9D11BAC20D9D9A7C13DE93FFB31B DUP2 PUSH1 0x40 MLOAD PUSH2 0xA2 SWAP2 SWAP1 PUSH2 0x413 JUMP JUMPDEST PUSH1 0x40 MLOAD DUP1 SWAP2 SUB SWAP1 LOG1 POP JUMP JUMPDEST PUSH32 0x416CFA4330A4565F45C2FD2DD4826A83A37443ABA2CE6F79477C7355AFAC35FA CALLER DUP6 DUP6 DUP6 TIMESTAMP DUP7 PUSH1 0x40 MLOAD PUSH2 0xE6 SWAP7 SWAP6 SWAP5 SWAP4 SWAP3 SWAP2 SWAP1 PUSH2 0x3A4 JUMP JUMPDEST PUSH1 0x40 MLOAD DUP1 SWAP2 SUB SWAP1 LOG1 POP POP POP POP JUMP JUMPDEST PUSH1 0x0 PUSH2 0x107 PUSH2 0x102 DUP5 PUSH2 0x45F JUMP JUMPDEST PUSH2 0x42E JUMP JUMPDEST SWAP1 POP DUP3 DUP2 MSTORE PUSH1 0x20 DUP2 ADD DUP5 DUP5 DUP5 ADD GT ISZERO PUSH2 0x11F JUMPI PUSH1 0x0 DUP1 REVERT JUMPDEST PUSH2 0x12A DUP5 DUP3 DUP6 PUSH2 0x52F JUMP JUMPDEST POP SWAP4 SWAP3 POP POP POP JUMP JUMPDEST PUSH1 0x0 DUP2 CALLDATALOAD SWAP1 POP PUSH2 0x141 DUP2 PUSH2 0x5B1 JUMP JUMPDEST SWAP3 SWAP2 POP POP JUMP JUMPDEST PUSH1 0x0 DUP2 CALLDATALOAD SWAP1 POP PUSH2 0x156 DUP2 PUSH2 0x5C8 JUMP JUMPDEST SWAP3 SWAP2 POP POP JUMP JUMPDEST PUSH1 0x0 DUP3 PUSH1 0x1F DUP4 ADD SLT PUSH2 0x16D JUMPI PUSH1 0x0 DUP1 REVERT JUMPDEST DUP2 CALLDATALOAD PUSH2 0x17D DUP5 DUP3 PUSH1 0x20 DUP7 ADD PUSH2 0xF4 JUMP JUMPDEST SWAP2 POP POP SWAP3 SWAP2 POP POP JUMP JUMPDEST PUSH1 0x0 PUSH1 0x80 DUP3 DUP5 SUB SLT ISZERO PUSH2 0x198 JUMPI PUSH1 0x0 DUP1 REVERT JUMPDEST PUSH2 0x1A2 PUSH1 0x80 PUSH2 0x42E JUMP JUMPDEST SWAP1 POP PUSH1 0x0 PUSH2 0x1B2 DUP5 DUP3 DUP6 ADD PUSH2 0x1FA JUMP JUMPDEST PUSH1 0x0 DUP4 ADD MSTORE POP PUSH1 0x20 PUSH2 0x1C6 DUP5 DUP3 DUP6 ADD PUSH2 0x132 JUMP JUMPDEST PUSH1 0x20 DUP4 ADD MSTORE POP PUSH1 0x40 PUSH2 0x1DA DUP5 DUP3 DUP6 ADD PUSH2 0x132 JUMP JUMPDEST PUSH1 0x40 DUP4 ADD MSTORE POP PUSH1 0x60 PUSH2 0x1EE DUP5 DUP3 DUP6 ADD PUSH2 0x1FA JUMP JUMPDEST PUSH1 0x60 DUP4 ADD MSTORE POP SWAP3 SWAP2 POP POP JUMP JUMPDEST PUSH1 0x0 DUP2 CALLDATALOAD SWAP1 POP PUSH2 0x209 DUP2 PUSH2 0x5DF JUMP JUMPDEST SWAP3 SWAP2 POP POP JUMP JUMPDEST PUSH1 0x0 DUP1 PUSH1 0x0 DUP1 PUSH1 0x80 DUP6 DUP8 SUB SLT ISZERO PUSH2 0x225 JUMPI PUSH1 0x0 DUP1 REVERT JUMPDEST PUSH1 0x0 PUSH2 0x233 DUP8 DUP3 DUP9 ADD PUSH2 0x147 JUMP JUMPDEST SWAP5 POP POP PUSH1 0x20 PUSH2 0x244 DUP8 DUP3 DUP9 ADD PUSH2 0x1FA JUMP JUMPDEST SWAP4 POP POP PUSH1 0x40 DUP6 ADD CALLDATALOAD PUSH8 0xFFFFFFFFFFFFFFFF DUP2 GT ISZERO PUSH2 0x261 JUMPI PUSH1 0x0 DUP1 REVERT JUMPDEST PUSH2 0x26D DUP8 DUP3 DUP9 ADD PUSH2 0x15C JUMP JUMPDEST SWAP3 POP POP PUSH1 0x60 DUP6 ADD CALLDATALOAD PUSH8 0xFFFFFFFFFFFFFFFF DUP2 GT ISZERO PUSH2 0x28A JUMPI PUSH1 0x0 DUP1 REVERT JUMPDEST PUSH2 0x296 DUP8 DUP3 DUP9 ADD PUSH2 0x15C JUMP JUMPDEST SWAP2 POP POP SWAP3 SWAP6 SWAP2 SWAP5 POP SWAP3 POP JUMP JUMPDEST PUSH1 0x0 PUSH1 0x80 DUP3 DUP5 SUB SLT ISZERO PUSH2 0x2B4 JUMPI PUSH1 0x0 DUP1 REVERT JUMPDEST PUSH1 0x0 PUSH2 0x2C2 DUP5 DUP3 DUP6 ADD PUSH2 0x186 JUMP JUMPDEST SWAP2 POP POP SWAP3 SWAP2 POP POP JUMP JUMPDEST PUSH2 0x2D4 DUP2 PUSH2 0x4F9 JUMP JUMPDEST DUP3 MSTORE POP POP JUMP JUMPDEST PUSH2 0x2E3 DUP2 PUSH2 0x4AB JUMP JUMPDEST DUP3 MSTORE POP POP JUMP JUMPDEST PUSH2 0x2F2 DUP2 PUSH2 0x4AB JUMP JUMPDEST DUP3 MSTORE POP POP JUMP JUMPDEST PUSH1 0x0 PUSH2 0x303 DUP3 PUSH2 0x48F JUMP JUMPDEST PUSH2 0x30D DUP2 DUP6 PUSH2 0x49A JUMP JUMPDEST SWAP4 POP PUSH2 0x31D DUP2 DUP6 PUSH1 0x20 DUP7 ADD PUSH2 0x53E JUMP JUMPDEST PUSH2 0x326 DUP2 PUSH2 0x5A0 JUMP JUMPDEST DUP5 ADD SWAP2 POP POP SWAP3 SWAP2 POP POP JUMP JUMPDEST PUSH1 0x80 DUP3 ADD PUSH1 0x0 DUP3 ADD MLOAD PUSH2 0x347 PUSH1 0x0 DUP6 ADD DUP3 PUSH2 0x386 JUMP JUMPDEST POP PUSH1 0x20 DUP3 ADD MLOAD PUSH2 0x35A PUSH1 0x20 DUP6 ADD DUP3 PUSH2 0x2DA JUMP JUMPDEST POP PUSH1 0x40 DUP3 ADD MLOAD PUSH2 0x36D PUSH1 0x40 DUP6 ADD DUP3 PUSH2 0x2DA JUMP JUMPDEST POP PUSH1 0x60 DUP3 ADD MLOAD PUSH2 0x380 PUSH1 0x60 DUP6 ADD DUP3 PUSH2 0x386 JUMP JUMPDEST POP POP POP POP JUMP JUMPDEST PUSH2 0x38F DUP2 PUSH2 0x4EF JUMP JUMPDEST DUP3 MSTORE POP POP JUMP JUMPDEST PUSH2 0x39E DUP2 PUSH2 0x4EF JUMP JUMPDEST DUP3 MSTORE POP POP JUMP JUMPDEST PUSH1 0x0 PUSH1 0xC0 DUP3 ADD SWAP1 POP PUSH2 0x3B9 PUSH1 0x0 DUP4 ADD DUP10 PUSH2 0x2E9 JUMP JUMPDEST PUSH2 0x3C6 PUSH1 0x20 DUP4 ADD DUP9 PUSH2 0x2CB JUMP JUMPDEST PUSH2 0x3D3 PUSH1 0x40 DUP4 ADD DUP8 PUSH2 0x395 JUMP JUMPDEST DUP2 DUP2 SUB PUSH1 0x60 DUP4 ADD MSTORE PUSH2 0x3E5 DUP2 DUP7 PUSH2 0x2F8 JUMP JUMPDEST SWAP1 POP PUSH2 0x3F4 PUSH1 0x80 DUP4 ADD DUP6 PUSH2 0x395 JUMP JUMPDEST DUP2 DUP2 SUB PUSH1 0xA0 DUP4 ADD MSTORE PUSH2 0x406 DUP2 DUP5 PUSH2 0x2F8 JUMP JUMPDEST SWAP1 POP SWAP8 SWAP7 POP POP POP POP POP POP POP JUMP JUMPDEST PUSH1 0x0 PUSH1 0x80 DUP3 ADD SWAP1 POP PUSH2 0x428 PUSH1 0x0 DUP4 ADD DUP5 PUSH2 0x331 JUMP JUMPDEST SWAP3 SWAP2 POP POP JUMP JUMPDEST PUSH1 0x0 PUSH1 0x40 MLOAD SWAP1 POP DUP2 DUP2 ADD DUP2 DUP2 LT PUSH8 0xFFFFFFFFFFFFFFFF DUP3 GT OR ISZERO PUSH2 0x455 JUMPI PUSH2 0x454 PUSH2 0x571 JUMP JUMPDEST JUMPDEST DUP1 PUSH1 0x40 MSTORE POP SWAP2 SWAP1 POP JUMP JUMPDEST PUSH1 0x0 PUSH8 0xFFFFFFFFFFFFFFFF DUP3 GT ISZERO PUSH2 0x47A JUMPI PUSH2 0x479 PUSH2 0x571 JUMP JUMPDEST JUMPDEST PUSH1 0x1F NOT PUSH1 0x1F DUP4 ADD AND SWAP1 POP PUSH1 0x20 DUP2 ADD SWAP1 POP SWAP2 SWAP1 POP JUMP JUMPDEST PUSH1 0x0 DUP2 MLOAD SWAP1 POP SWAP2 SWAP1 POP JUMP JUMPDEST PUSH1 0x0 DUP3 DUP3 MSTORE PUSH1 0x20 DUP3 ADD SWAP1 POP SWAP3 SWAP2 POP POP JUMP JUMPDEST PUSH1 0x0 PUSH2 0x4B6 DUP3 PUSH2 0x4CF JUMP JUMPDEST SWAP1 POP SWAP2 SWAP1 POP JUMP JUMPDEST PUSH1 0x0 PUSH2 0x4C8 DUP3 PUSH2 0x4CF JUMP JUMPDEST SWAP1 POP SWAP2 SWAP1 POP JUMP JUMPDEST PUSH1 0x0 PUSH20 0xFFFFFFFFFFFFFFFFFFFFFFFFFFFFFFFFFFFFFFFF DUP3 AND SWAP1 POP SWAP2 SWAP1 POP JUMP JUMPDEST PUSH1 0x0 DUP2 SWAP1 POP SWAP2 SWAP1 POP JUMP JUMPDEST PUSH1 0x0 PUSH2 0x504 DUP3 PUSH2 0x50B JUMP JUMPDEST SWAP1 POP SWAP2 SWAP1 POP JUMP JUMPDEST PUSH1 0x0 PUSH2 0x516 DUP3 PUSH2 0x51D JUMP JUMPDEST SWAP1 POP SWAP2 SWAP1 POP JUMP JUMPDEST PUSH1 0x0 PUSH2 0x528 DUP3 PUSH2 0x4CF JUMP JUMPDEST SWAP1 POP SWAP2 SWAP1 POP JUMP JUMPDEST DUP3 DUP2 DUP4 CALLDATACOPY PUSH1 0x0 DUP4 DUP4 ADD MSTORE POP POP POP JUMP JUMPDEST PUSH1 0x0 JUMPDEST DUP4 DUP2 LT ISZERO PUSH2 0x55C JUMPI DUP1 DUP3 ADD MLOAD DUP2 DUP5 ADD MSTORE PUSH1 0x20 DUP2 ADD SWAP1 POP PUSH2 0x541 JUMP JUMPDEST DUP4 DUP2 GT ISZERO PUSH2 0x56B JUMPI PUSH1 0x0 DUP5 DUP5 ADD MSTORE JUMPDEST POP POP POP POP JUMP JUMPDEST PUSH32 0x4E487B7100000000000000000000000000000000000000000000000000000000 PUSH1 0x0 MSTORE PUSH1 0x41 PUSH1 0x4 MSTORE PUSH1 0x24 PUSH1 0x0 REVERT JUMPDEST PUSH1 0x0 PUSH1 0x1F NOT PUSH1 0x1F DUP4 ADD AND SWAP1 POP SWAP2 SWAP1 POP JUMP JUMPDEST PUSH2 0x5BA DUP2 PUSH2 0x4AB JUMP JUMPDEST DUP2 EQ PUSH2 0x5C5 JUMPI PUSH1 0x0 DUP1 REVERT JUMPDEST POP JUMP JUMPDEST PUSH2 0x5D1 DUP2 PUSH2 0x4BD JUMP JUMPDEST DUP2 EQ PUSH2 0x5DC JUMPI PUSH1 0x0 DUP1 REVERT JUMPDEST POP JUMP JUMPDEST PUSH2 0x5E8 DUP2 PUSH2 0x4EF JUMP JUMPDEST DUP2 EQ PUSH2 0x5F3 JUMPI PUSH1 0x0 DUP1 REVERT JUMPDEST POP JUMP INVALID LOG2 PUSH5 0x6970667358 0x22 SLT KECCAK256 0xA6 GAS PUSH28 0x9CA293EB0AA0CA64DB9A9D0E4AEAE2199B79C3CCD7ED1159AD11CB00 CREATE PUSH5 0x736F6C6343 STOP ADDMOD STOP STOP CALLER "
        },
        "methodIdentifiers": {
          "publishTransaction(address,uint256,string,string)": "7d0ee357",
          "publishTransaction2((uint256,address,address,uint256))": "38cedf73"
        }
      }
    }
  }
}