{
  "_format": "hh-sol-artifact-1",
  "contractName": "Transactions",
  "sourceName": "contracts/Transactions.sol",
  "abi": [
    {
      "anonymous": false,
      "inputs": [
        {
          "components": [
            {
              "internalType": "uint256",
              "name": "timestamp",
              "type": "uint256"
            },
            {
              "internalType": "address",
              "name": "from",
              "type": "address"
            },
            {
              "internalType": "address",
              "name": "to",
              "type": "address"
            },
            {
              "internalType": "uint256",
              "name": "amount",
              "type": "uint256"
            }
          ],
          "indexed": false,
          "internalType": "struct Transactions.Transaction",
          "name": "",
          "type": "tuple"
        }
      ],
      "name": "TestStruct",
      "type": "event"
    },
    {
      "anonymous": false,
      "inputs": [
        {
          "indexed": false,
          "internalType": "address",
          "name": "sender",
          "type": "address"
        },
        {
          "indexed": false,
          "internalType": "address",
          "name": "receiver",
          "type": "address"
        },
        {
          "indexed": false,
          "internalType": "uint256",
          "name": "amount",
          "type": "uint256"
        },
        {
          "indexed": false,
          "internalType": "string",
          "name": "message",
          "type": "string"
        },
        {
          "indexed": false,
          "internalType": "uint256",
          "name": "timestamp",
          "type": "uint256"
        },
        {
          "indexed": false,
          "internalType": "string",
          "name": "keyword",
          "type": "string"
        }
      ],
      "name": "Transfer",
      "type": "event"
    },
    {
      "inputs": [
        {
          "internalType": "address payable",
          "name": "receiver",
          "type": "address"
        },
        {
          "internalType": "uint256",
          "name": "amount",
          "type": "uint256"
        },
        {
          "internalType": "string",
          "name": "message",
          "type": "string"
        },
        {
          "internalType": "string",
          "name": "keyword",
          "type": "string"
        }
      ],
      "name": "publishTransaction",
      "outputs": [],
      "stateMutability": "nonpayable",
      "type": "function"
    },
    {
      "inputs": [
        {
          "components": [
            {
              "internalType": "uint256",
              "name": "timestamp",
              "type": "uint256"
            },
            {
              "internalType": "address",
              "name": "from",
              "type": "address"
            },
            {
              "internalType": "address",
              "name": "to",
              "type": "address"
            },
            {
              "internalType": "uint256",
              "name": "amount",
              "type": "uint256"
            }
          ],
          "internalType": "struct Transactions.Transaction",
          "name": "testParam",
          "type": "tuple"
        }
      ],
      "name": "publishTransaction2",
      "outputs": [],
      "stateMutability": "nonpayable",
      "type": "function"
    }
  ],
  "bytecode": "0x608060405234801561001057600080fd5b5061062c806100206000396000f3fe608060405234801561001057600080fd5b50600436106100365760003560e01c806338cedf731461003b5780637d0ee35714610057575b600080fd5b610055600480360381019061005091906102a2565b610073565b005b610071600480360381019061006c919061020f565b6100ad565b005b7fe1416ea0785bd3df56bd8db55a6b131d45bf9d11bac20d9d9a7c13de93ffb31b816040516100a29190610413565b60405180910390a150565b7f416cfa4330a4565f45c2fd2dd4826a83a37443aba2ce6f79477c7355afac35fa3385858542866040516100e6969594939291906103a4565b60405180910390a150505050565b60006101076101028461045f565b61042e565b90508281526020810184848401111561011f57600080fd5b61012a84828561052f565b509392505050565b600081359050610141816105b1565b92915050565b600081359050610156816105c8565b92915050565b600082601f83011261016d57600080fd5b813561017d8482602086016100f4565b91505092915050565b60006080828403121561019857600080fd5b6101a2608061042e565b905060006101b2848285016101fa565b60008301525060206101c684828501610132565b60208301525060406101da84828501610132565b60408301525060606101ee848285016101fa565b60608301525092915050565b600081359050610209816105df565b92915050565b6000806000806080858703121561022557600080fd5b600061023387828801610147565b9450506020610244878288016101fa565b935050604085013567ffffffffffffffff81111561026157600080fd5b61026d8782880161015c565b925050606085013567ffffffffffffffff81111561028a57600080fd5b6102968782880161015c565b91505092959194509250565b6000608082840312156102b457600080fd5b60006102c284828501610186565b91505092915050565b6102d4816104f9565b82525050565b6102e3816104ab565b82525050565b6102f2816104ab565b82525050565b60006103038261048f565b61030d818561049a565b935061031d81856020860161053e565b610326816105a0565b840191505092915050565b6080820160008201516103476000850182610386565b50602082015161035a60208501826102da565b50604082015161036d60408501826102da565b5060608201516103806060850182610386565b50505050565b61038f816104ef565b82525050565b61039e816104ef565b82525050565b600060c0820190506103b960008301896102e9565b6103c660208301886102cb565b6103d36040830187610395565b81810360608301526103e581866102f8565b90506103f46080830185610395565b81810360a083015261040681846102f8565b9050979650505050505050565b60006080820190506104286000830184610331565b92915050565b6000604051905081810181811067ffffffffffffffff8211171561045557610454610571565b5b8060405250919050565b600067ffffffffffffffff82111561047a57610479610571565b5b601f19601f8301169050602081019050919050565b600081519050919050565b600082825260208201905092915050565b60006104b6826104cf565b9050919050565b60006104c8826104cf565b9050919050565b600073ffffffffffffffffffffffffffffffffffffffff82169050919050565b6000819050919050565b60006105048261050b565b9050919050565b60006105168261051d565b9050919050565b6000610528826104cf565b9050919050565b82818337600083830152505050565b60005b8381101561055c578082015181840152602081019050610541565b8381111561056b576000848401525b50505050565b7f4e487b7100000000000000000000000000000000000000000000000000000000600052604160045260246000fd5b6000601f19601f8301169050919050565b6105ba816104ab565b81146105c557600080fd5b50565b6105d1816104bd565b81146105dc57600080fd5b50565b6105e8816104ef565b81146105f357600080fd5b5056fea2646970667358221220a65a7b9ca293eb0aa0ca64db9a9d0e4aeae2199b79c3ccd7ed1159ad11cb00f064736f6c63430008000033",
  "linkReferences": {},
  "deployedLinkReferences": {}
}